{
  "_format": "hh-sol-artifact-1",
  "contractName": "MultisigFactory",
  "sourceName": "contracts/MultisigFactory.sol",
  "abi": [
    {
      "inputs": [
        {
          "internalType": "uint8",
          "name": "_quorum",
          "type": "uint8"
        },
        {
          "internalType": "address[]",
          "name": "_validSigners",
          "type": "address[]"
        }
      ],
      "name": "createMultisigWallet",
      "outputs": [
        {
          "internalType": "contract Multisig",
          "name": "newMultisig_",
          "type": "address"
        },
        {
          "internalType": "uint256",
          "name": "length_",
          "type": "uint256"
        }
      ],
      "stateMutability": "nonpayable",
      "type": "function"
    },
    {
      "inputs": [],
      "name": "getMultiSigClones",
      "outputs": [
        {
          "internalType": "contract Multisig[]",
          "name": "",
          "type": "address[]"
        }
      ],
      "stateMutability": "view",
      "type": "function"
    }
  ],
  "bytecode": "0x608060405234801561001057600080fd5b50613756806100206000396000f3fe60806040523480156200001157600080fd5b50600436106200003a5760003560e01c8063109dd5e9146200003f578063b4d3a48c1462000061575b600080fd5b6200004962000098565b60405162000058919062000330565b60405180910390f35b6200007f600480360381019062000079919062000560565b62000128565b6040516200008f929190620005f2565b60405180910390f35b606060008054806020026020016040519081016040528092919081815260200182805480156200011e57602002820191906000526020600020905b8160009054906101000a900473ffffffffffffffffffffffffffffffffffffffff1673ffffffffffffffffffffffffffffffffffffffff1681526020019060010190808311620000d3575b5050505050905090565b60008083836040516200013b90620001da565b62000148929190620006ed565b604051809103906000f08015801562000165573d6000803e3d6000fd5b5091506000829080600181540180825580915050600190039060005260206000200160009091909190916101000a81548173ffffffffffffffffffffffffffffffffffffffff021916908373ffffffffffffffffffffffffffffffffffffffff16021790555060008054905090509250929050565b612fff806200072283390190565b600081519050919050565b600082825260208201905092915050565b6000819050602082019050919050565b600073ffffffffffffffffffffffffffffffffffffffff82169050919050565b6000819050919050565b60006200025f62000259620002538462000214565b62000234565b62000214565b9050919050565b600062000273826200023e565b9050919050565b6000620002878262000266565b9050919050565b62000299816200027a565b82525050565b6000620002ad83836200028e565b60208301905092915050565b6000602082019050919050565b6000620002d382620001e8565b620002df8185620001f3565b9350620002ec8362000204565b8060005b83811015620003235781516200030788826200029f565b97506200031483620002b9565b925050600181019050620002f0565b5085935050505092915050565b600060208201905081810360008301526200034c8184620002c6565b905092915050565b6000604051905090565b600080fd5b600080fd5b600060ff82169050919050565b620003808162000368565b81146200038c57600080fd5b50565b600081359050620003a08162000375565b92915050565b600080fd5b6000601f19601f8301169050919050565b7f4e487b7100000000000000000000000000000000000000000000000000000000600052604160045260246000fd5b620003f682620003ab565b810181811067ffffffffffffffff82111715620004185762000417620003bc565b5b80604052505050565b60006200042d62000354565b90506200043b8282620003eb565b919050565b600067ffffffffffffffff8211156200045e576200045d620003bc565b5b602082029050602081019050919050565b600080fd5b6000620004818262000214565b9050919050565b620004938162000474565b81146200049f57600080fd5b50565b600081359050620004b38162000488565b92915050565b6000620004d0620004ca8462000440565b62000421565b90508083825260208201905060208402830185811115620004f657620004f56200046f565b5b835b818110156200052357806200050e8882620004a2565b845260208401935050602081019050620004f8565b5050509392505050565b600082601f830112620005455762000544620003a6565b5b813562000557848260208601620004b9565b91505092915050565b600080604083850312156200057a57620005796200035e565b5b60006200058a858286016200038f565b925050602083013567ffffffffffffffff811115620005ae57620005ad62000363565b5b620005bc858286016200052d565b9150509250929050565b620005d1816200027a565b82525050565b6000819050919050565b620005ec81620005d7565b82525050565b6000604082019050620006096000830185620005c6565b620006186020830184620005e1565b9392505050565b6200062a8162000368565b82525050565b600081519050919050565b6000819050602082019050919050565b620006568162000474565b82525050565b60006200066a83836200064b565b60208301905092915050565b6000602082019050919050565b6000620006908262000630565b6200069c8185620001f3565b9350620006a9836200063b565b8060005b83811015620006e0578151620006c488826200065c565b9750620006d18362000676565b925050600181019050620006ad565b5085935050505092915050565b60006040820190506200070460008301856200061f565b818103602083015262000718818462000683565b9050939250505056fe60806040523480156200001157600080fd5b5060405162002fff38038062002fff83398181016040528101906200003791906200063d565b60018151116200007e576040517f08c379a0000000000000000000000000000000000000000000000000000000008152600401620000759062000704565b60405180910390fd5b60018260ff1611620000c7576040517f08c379a0000000000000000000000000000000000000000000000000000000008152600401620000be9062000776565b60405180910390fd5b60005b81518110156200029357600073ffffffffffffffffffffffffffffffffffffffff1682828151811062000102576200010162000798565b5b602002602001015173ffffffffffffffffffffffffffffffffffffffff160362000163576040517f08c379a00000000000000000000000000000000000000000000000000000000081526004016200015a9062000817565b60405180910390fd5b600260008383815181106200017d576200017c62000798565b5b602002602001015173ffffffffffffffffffffffffffffffffffffffff1673ffffffffffffffffffffffffffffffffffffffff16815260200190815260200160002060009054906101000a900460ff161562000210576040517f08c379a0000000000000000000000000000000000000000000000000000000008152600401620002079062000889565b60405180910390fd5b6001600260008484815181106200022c576200022b62000798565b5b602002602001015173ffffffffffffffffffffffffffffffffffffffff1673ffffffffffffffffffffffffffffffffffffffff16815260200190815260200160002060006101000a81548160ff0219169083151502179055508080600101915050620000ca565b508051600060016101000a81548160ff021916908360ff160217905550600260003373ffffffffffffffffffffffffffffffffffffffff1673ffffffffffffffffffffffffffffffffffffffff16815260200190815260200160002060009054906101000a900460ff1662000394576001600260003373ffffffffffffffffffffffffffffffffffffffff1673ffffffffffffffffffffffffffffffffffffffff16815260200190815260200160002060006101000a81548160ff0219169083151502179055506001600060018282829054906101000a900460ff166200037b9190620008da565b92506101000a81548160ff021916908360ff1602179055505b600060019054906101000a900460ff1660ff168260ff161115620003ef576040517f08c379a0000000000000000000000000000000000000000000000000000000008152600401620003e6906200098c565b60405180910390fd5b816000806101000a81548160ff021916908360ff1602179055505050620009ae565b6000604051905090565b600080fd5b600080fd5b600060ff82169050919050565b6200043d8162000425565b81146200044957600080fd5b50565b6000815190506200045d8162000432565b92915050565b600080fd5b6000601f19601f8301169050919050565b7f4e487b7100000000000000000000000000000000000000000000000000000000600052604160045260246000fd5b620004b38262000468565b810181811067ffffffffffffffff82111715620004d557620004d462000479565b5b80604052505050565b6000620004ea62000411565b9050620004f88282620004a8565b919050565b600067ffffffffffffffff8211156200051b576200051a62000479565b5b602082029050602081019050919050565b600080fd5b600073ffffffffffffffffffffffffffffffffffffffff82169050919050565b60006200055e8262000531565b9050919050565b620005708162000551565b81146200057c57600080fd5b50565b600081519050620005908162000565565b92915050565b6000620005ad620005a784620004fd565b620004de565b90508083825260208201905060208402830185811115620005d357620005d26200052c565b5b835b81811015620006005780620005eb88826200057f565b845260208401935050602081019050620005d5565b5050509392505050565b600082601f83011262000622576200062162000463565b5b81516200063484826020860162000596565b91505092915050565b600080604083850312156200065757620006566200041b565b5b600062000667858286016200044c565b925050602083015167ffffffffffffffff8111156200068b576200068a62000420565b5b62000699858286016200060a565b9150509250929050565b600082825260208201905092915050565b7f6665772076616c6964207369676e657273000000000000000000000000000000600082015250565b6000620006ec601183620006a3565b9150620006f982620006b4565b602082019050919050565b600060208201905081810360008301526200071f81620006dd565b9050919050565b7f71756f72756d20697320746f6f20736d616c6c00000000000000000000000000600082015250565b60006200075e601383620006a3565b91506200076b8262000726565b602082019050919050565b6000602082019050818103600083015262000791816200074f565b9050919050565b7f4e487b7100000000000000000000000000000000000000000000000000000000600052603260045260246000fd5b7f7a65726f2061646472657373206e6f7420616c6c6f7765640000000000000000600082015250565b6000620007ff601883620006a3565b91506200080c82620007c7565b602082019050919050565b600060208201905081810360008301526200083281620007f0565b9050919050565b7f7369676e657220616c7265616479206578697374000000000000000000000000600082015250565b600062000871601483620006a3565b91506200087e8262000839565b602082019050919050565b60006020820190508181036000830152620008a48162000862565b9050919050565b7f4e487b7100000000000000000000000000000000000000000000000000000000600052601160045260246000fd5b6000620008e78262000425565b9150620008f48362000425565b9250828201905060ff81111562000910576200090f620008ab565b5b92915050565b7f71756f72756d2067726561746572207468616e2076616c6964207369676e657260008201527f7300000000000000000000000000000000000000000000000000000000000000602082015250565b600062000974602183620006a3565b9150620009818262000916565b604082019050919050565b60006020820190508181036000830152620009a78162000965565b9050919050565b61264180620009be6000396000f3fe608060405234801561001057600080fd5b506004361061009e5760003560e01c806370e9cc961161006657806370e9cc9614610149578063ccb570e314610165578063d40cfc5114610181578063d5f505821461019d578063f0fbda2d146101cd5761009e565b80631703a018146100a357806317eff51b146100c15780632f430e17146100df57806333ea3dc8146100fb5780633c5406871461012b575b600080fd5b6100ab6101fd565b6040516100b891906119d0565b60405180910390f35b6100c961020e565b6040516100d691906119d0565b60405180910390f35b6100f960048036038101906100f49190611a1c565b610221565b005b61011560048036038101906101109190611a7f565b61073e565b6040516101229190611c9f565b60405180910390f35b610133610a8c565b6040516101409190611cd0565b60405180910390f35b610163600480360381019061015e9190611a1c565b610a92565b005b61017f600480360381019061017a9190611d17565b610e2e565b005b61019b60048036038101906101969190611a1c565b61131d565b005b6101b760048036038101906101b29190611d6a565b61166b565b6040516101c49190611da6565b60405180910390f35b6101e760048036038101906101e29190611a1c565b61168b565b6040516101f49190611e0d565b60405180910390f35b60008054906101000a900460ff1681565b600060019054906101000a900460ff1681565b6000600360008360ff168152602001908152602001600020905060008260ff1603610281576040517f08c379a000000000000000000000000000000000000000000000000000000000815260040161027890611e8c565b60405180910390fd5b80600001548160030160009054906101000a900473ffffffffffffffffffffffffffffffffffffffff1673ffffffffffffffffffffffffffffffffffffffff166370a08231306040518263ffffffff1660e01b81526004016102e39190611ebb565b602060405180830381865afa158015610300573d6000803e3d6000fd5b505050506040513d601f19601f820116820180604052508101906103249190611eeb565b1015610365576040517f08c379a000000000000000000000000000000000000000000000000000000000815260040161035c90611f64565b60405180910390fd5b8060040160000160009054906101000a900460ff16156103ba576040517f08c379a00000000000000000000000000000000000000000000000000000000081526004016103b190611fd0565b60405180910390fd5b60008054906101000a900460ff1660ff16816004016002015410610413576040517f08c379a000000000000000000000000000000000000000000000000000000000815260040161040a9061203c565b60405180910390fd5b600260003373ffffffffffffffffffffffffffffffffffffffff1673ffffffffffffffffffffffffffffffffffffffff16815260200190815260200160002060009054906101000a900460ff1661049f576040517f08c379a0000000000000000000000000000000000000000000000000000000008152600401610496906120a8565b60405180910390fd5b600460003373ffffffffffffffffffffffffffffffffffffffff1673ffffffffffffffffffffffffffffffffffffffff16815260200190815260200160002060008360ff16815260200190815260200160002060009054906101000a900460ff1615610540576040517f08c379a000000000000000000000000000000000000000000000000000000000815260040161053790612114565b60405180910390fd5b60008160040190506001600460003373ffffffffffffffffffffffffffffffffffffffff1673ffffffffffffffffffffffffffffffffffffffff16815260200190815260200160002060008560ff16815260200190815260200160002060006101000a81548160ff02191690831515021790555060018160020160008282546105c99190612163565b9250508190555080600301339080600181540180825580915050600190039060005260206000200160009091909190916101000a81548173ffffffffffffffffffffffffffffffffffffffff021916908373ffffffffffffffffffffffffffffffffffffffff16021790555060008054906101000a900460ff1660ff168160020154036107395760018160000160006101000a81548160ff0219169083151502179055508160030160009054906101000a900473ffffffffffffffffffffffffffffffffffffffff1673ffffffffffffffffffffffffffffffffffffffff1663a9059cbb8360020160009054906101000a900473ffffffffffffffffffffffffffffffffffffffff1684600001546040518363ffffffff1660e01b81526004016106f4929190612197565b6020604051808303816000875af1158015610713573d6000803e3d6000fd5b505050506040513d601f19601f8201168201806040525081019061073791906121ec565b505b505050565b6107466118f0565b600073ffffffffffffffffffffffffffffffffffffffff163373ffffffffffffffffffffffffffffffffffffffff16036107b5576040517f08c379a00000000000000000000000000000000000000000000000000000000081526004016107ac90612265565b60405180910390fd5b600260003373ffffffffffffffffffffffffffffffffffffffff1673ffffffffffffffffffffffffffffffffffffffff16815260200190815260200160002060009054906101000a900460ff16610841576040517f08c379a0000000000000000000000000000000000000000000000000000000008152600401610838906122d1565b60405180910390fd5b60008203610884576040517f08c379a000000000000000000000000000000000000000000000000000000000815260040161087b90611e8c565b60405180910390fd5b6000600360008481526020019081526020016000206040518060a0016040529081600082015481526020016001820160009054906101000a900473ffffffffffffffffffffffffffffffffffffffff1673ffffffffffffffffffffffffffffffffffffffff1673ffffffffffffffffffffffffffffffffffffffff1681526020016002820160009054906101000a900473ffffffffffffffffffffffffffffffffffffffff1673ffffffffffffffffffffffffffffffffffffffff1673ffffffffffffffffffffffffffffffffffffffff1681526020016003820160009054906101000a900473ffffffffffffffffffffffffffffffffffffffff1673ffffffffffffffffffffffffffffffffffffffff1673ffffffffffffffffffffffffffffffffffffffff168152602001600482016040518060800160405290816000820160009054906101000a900460ff16151515158152602001600182015481526020016002820154815260200160038201805480602002602001604051908101604052809291908181526020018280548015610a7457602002820191906000526020600020905b8160009054906101000a900473ffffffffffffffffffffffffffffffffffffffff1673ffffffffffffffffffffffffffffffffffffffff1681526020019060010190808311610a2a575b50505050508152505081525050905080915050919050565b60015481565b6000600560008360ff168152602001908152602001600020905060008260ff1603610af2576040517f08c379a0000000000000000000000000000000000000000000000000000000008152600401610ae990611e8c565b60405180910390fd5b8060010160000160009054906101000a900460ff1615610b47576040517f08c379a0000000000000000000000000000000000000000000000000000000008152600401610b3e9061233d565b60405180910390fd5b60008054906101000a900460ff1660ff16816001016002015410610ba0576040517f08c379a0000000000000000000000000000000000000000000000000000000008152600401610b979061203c565b60405180910390fd5b600260003373ffffffffffffffffffffffffffffffffffffffff1673ffffffffffffffffffffffffffffffffffffffff16815260200190815260200160002060009054906101000a900460ff16610c2c576040517f08c379a0000000000000000000000000000000000000000000000000000000008152600401610c23906120a8565b60405180910390fd5b600460003373ffffffffffffffffffffffffffffffffffffffff1673ffffffffffffffffffffffffffffffffffffffff16815260200190815260200160002060008360ff16815260200190815260200160002060009054906101000a900460ff1615610ccd576040517f08c379a0000000000000000000000000000000000000000000000000000000008152600401610cc490612114565b60405180910390fd5b6001600460003373ffffffffffffffffffffffffffffffffffffffff1673ffffffffffffffffffffffffffffffffffffffff16815260200190815260200160002060008460ff16815260200190815260200160002060006101000a81548160ff02191690831515021790555060018160010160020154610d4d9190612163565b816001016002018190555080600101600301339080600181540180825580915050600190039060005260206000200160009091909190916101000a81548173ffffffffffffffffffffffffffffffffffffffff021916908373ffffffffffffffffffffffffffffffffffffffff16021790555060008054906101000a900460ff1660ff16816001016002015403610e2a5760018160010160000160006101000a81548160ff0219169083151502179055508060000160009054906101000a900460ff166000806101000a81548160ff021916908360ff1602179055505b5050565b600073ffffffffffffffffffffffffffffffffffffffff163373ffffffffffffffffffffffffffffffffffffffff1603610e9d576040517f08c379a0000000000000000000000000000000000000000000000000000000008152600401610e9490612265565b60405180910390fd5b600260003373ffffffffffffffffffffffffffffffffffffffff1673ffffffffffffffffffffffffffffffffffffffff16815260200190815260200160002060009054906101000a900460ff16610f29576040517f08c379a0000000000000000000000000000000000000000000000000000000008152600401610f20906123a9565b60405180910390fd5b60008311610f6c576040517f08c379a0000000000000000000000000000000000000000000000000000000008152600401610f6390612415565b60405180910390fd5b600073ffffffffffffffffffffffffffffffffffffffff168273ffffffffffffffffffffffffffffffffffffffff1603610fdb576040517f08c379a0000000000000000000000000000000000000000000000000000000008152600401610fd290612265565b60405180910390fd5b600073ffffffffffffffffffffffffffffffffffffffff168173ffffffffffffffffffffffffffffffffffffffff160361104a576040517f08c379a000000000000000000000000000000000000000000000000000000000815260040161104190612265565b60405180910390fd5b828173ffffffffffffffffffffffffffffffffffffffff166370a08231306040518263ffffffff1660e01b81526004016110849190611ebb565b602060405180830381865afa1580156110a1573d6000803e3d6000fd5b505050506040513d601f19601f820116820180604052508101906110c59190611eeb565b1015611106576040517f08c379a00000000000000000000000000000000000000000000000000000000081526004016110fd90611f64565b60405180910390fd5b6000600180546111169190612163565b90506000600360008381526020019081526020016000209050848160000181905550838160020160006101000a81548173ffffffffffffffffffffffffffffffffffffffff021916908373ffffffffffffffffffffffffffffffffffffffff160217905550338160010160006101000a81548173ffffffffffffffffffffffffffffffffffffffff021916908373ffffffffffffffffffffffffffffffffffffffff160217905550828160030160006101000a81548173ffffffffffffffffffffffffffffffffffffffff021916908373ffffffffffffffffffffffffffffffffffffffff16021790555042816004016001018190555080600401600301339080600181540180825580915050600190039060005260206000200160009091909190916101000a81548173ffffffffffffffffffffffffffffffffffffffff021916908373ffffffffffffffffffffffffffffffffffffffff160217905550600181600401600201600082825461128d9190612163565b925050819055506001600460003373ffffffffffffffffffffffffffffffffffffffff1673ffffffffffffffffffffffffffffffffffffffff168152602001908152602001600020600084815260200190815260200160002060006101000a81548160ff021916908315150217905550600180600082825461130f9190612163565b925050819055505050505050565b600073ffffffffffffffffffffffffffffffffffffffff163373ffffffffffffffffffffffffffffffffffffffff160361138c576040517f08c379a000000000000000000000000000000000000000000000000000000000815260040161138390612265565b60405180910390fd5b600260003373ffffffffffffffffffffffffffffffffffffffff1673ffffffffffffffffffffffffffffffffffffffff16815260200190815260200160002060009054906101000a900460ff16611418576040517f08c379a000000000000000000000000000000000000000000000000000000000815260040161140f90612481565b60405180910390fd5b60008054906101000a900460ff1660ff168160ff160361146d576040517f08c379a0000000000000000000000000000000000000000000000000000000008152600401611464906124ed565b60405180910390fd5b600060019054906101000a900460ff1660ff168160ff1611156114c5576040517f08c379a00000000000000000000000000000000000000000000000000000000081526004016114bc9061257f565b60405180910390fd5b60008160ff160361150b576040517f08c379a0000000000000000000000000000000000000000000000000000000008152600401611502906125eb565b60405180910390fd5b60006001805461151b9190612163565b90506000600560008381526020019081526020016000209050828160000160006101000a81548160ff021916908360ff160217905550428160010160010181905550600181600101600201546115719190612163565b816001016002018190555080600101600301339080600181540180825580915050600190039060005260206000200160009091909190916101000a81548173ffffffffffffffffffffffffffffffffffffffff021916908373ffffffffffffffffffffffffffffffffffffffff1602179055506001600460003373ffffffffffffffffffffffffffffffffffffffff1673ffffffffffffffffffffffffffffffffffffffff168152602001908152602001600020600084815260200190815260200160002060006101000a81548160ff021916908315150217905550600180600082825461165f9190612163565b92505081905550505050565b60026020528060005260406000206000915054906101000a900460ff1681565b611693611967565b600073ffffffffffffffffffffffffffffffffffffffff163373ffffffffffffffffffffffffffffffffffffffff1603611702576040517f08c379a00000000000000000000000000000000000000000000000000000000081526004016116f990612265565b60405180910390fd5b600260003373ffffffffffffffffffffffffffffffffffffffff1673ffffffffffffffffffffffffffffffffffffffff16815260200190815260200160002060009054906101000a900460ff1661178e576040517f08c379a0000000000000000000000000000000000000000000000000000000008152600401611785906122d1565b60405180910390fd5b60008260ff16036117d4576040517f08c379a00000000000000000000000000000000000000000000000000000000081526004016117cb90611e8c565b60405180910390fd5b6000600560008460ff1681526020019081526020016000206040518060400160405290816000820160009054906101000a900460ff1660ff1660ff168152602001600182016040518060800160405290816000820160009054906101000a900460ff161515151581526020016001820154815260200160028201548152602001600382018054806020026020016040519081016040528092919081815260200182805480156118d857602002820191906000526020600020905b8160009054906101000a900473ffffffffffffffffffffffffffffffffffffffff1673ffffffffffffffffffffffffffffffffffffffff168152602001906001019080831161188e575b50505050508152505081525050905080915050919050565b6040518060a0016040528060008152602001600073ffffffffffffffffffffffffffffffffffffffff168152602001600073ffffffffffffffffffffffffffffffffffffffff168152602001600073ffffffffffffffffffffffffffffffffffffffff16815260200161196161198a565b81525090565b6040518060400160405280600060ff16815260200161198461198a565b81525090565b60405180608001604052806000151581526020016000815260200160008152602001606081525090565b600060ff82169050919050565b6119ca816119b4565b82525050565b60006020820190506119e560008301846119c1565b92915050565b600080fd5b6119f9816119b4565b8114611a0457600080fd5b50565b600081359050611a16816119f0565b92915050565b600060208284031215611a3257611a316119eb565b5b6000611a4084828501611a07565b91505092915050565b6000819050919050565b611a5c81611a49565b8114611a6757600080fd5b50565b600081359050611a7981611a53565b92915050565b600060208284031215611a9557611a946119eb565b5b6000611aa384828501611a6a565b91505092915050565b611ab581611a49565b82525050565b600073ffffffffffffffffffffffffffffffffffffffff82169050919050565b6000611ae682611abb565b9050919050565b611af681611adb565b82525050565b60008115159050919050565b611b1181611afc565b82525050565b600081519050919050565b600082825260208201905092915050565b6000819050602082019050919050565b6000611b4f8383611aed565b60208301905092915050565b6000602082019050919050565b6000611b7382611b17565b611b7d8185611b22565b9350611b8883611b33565b8060005b83811015611bb9578151611ba08882611b43565b9750611bab83611b5b565b925050600181019050611b8c565b5085935050505092915050565b6000608083016000830151611bde6000860182611b08565b506020830151611bf16020860182611aac565b506040830151611c046040860182611aac565b5060608301518482036060860152611c1c8282611b68565b9150508091505092915050565b600060a083016000830151611c416000860182611aac565b506020830151611c546020860182611aed565b506040830151611c676040860182611aed565b506060830151611c7a6060860182611aed565b5060808301518482036080860152611c928282611bc6565b9150508091505092915050565b60006020820190508181036000830152611cb98184611c29565b905092915050565b611cca81611a49565b82525050565b6000602082019050611ce56000830184611cc1565b92915050565b611cf481611adb565b8114611cff57600080fd5b50565b600081359050611d1181611ceb565b92915050565b600080600060608486031215611d3057611d2f6119eb565b5b6000611d3e86828701611a6a565b9350506020611d4f86828701611d02565b9250506040611d6086828701611d02565b9150509250925092565b600060208284031215611d8057611d7f6119eb565b5b6000611d8e84828501611d02565b91505092915050565b611da081611afc565b82525050565b6000602082019050611dbb6000830184611d97565b92915050565b611dca816119b4565b82525050565b6000604083016000830151611de86000860182611dc1565b5060208301518482036020860152611e008282611bc6565b9150508091505092915050565b60006020820190508181036000830152611e278184611dd0565b905092915050565b600082825260208201905092915050565b7f696e76616c696420747820696400000000000000000000000000000000000000600082015250565b6000611e76600d83611e2f565b9150611e8182611e40565b602082019050919050565b60006020820190508181036000830152611ea581611e69565b9050919050565b611eb581611adb565b82525050565b6000602082019050611ed06000830184611eac565b92915050565b600081519050611ee581611a53565b92915050565b600060208284031215611f0157611f006119eb565b5b6000611f0f84828501611ed6565b91505092915050565b7f696e73756666696369656e742066756e64730000000000000000000000000000600082015250565b6000611f4e601283611e2f565b9150611f5982611f18565b602082019050919050565b60006020820190508181036000830152611f7d81611f41565b9050919050565b7f7472616e73616374696f6e20616c726561647920636f6d706c65746564000000600082015250565b6000611fba601d83611e2f565b9150611fc582611f84565b602082019050919050565b60006020820190508181036000830152611fe981611fad565b9050919050565b7f617070726f76616c7320616c7265616479207265616368656400000000000000600082015250565b6000612026601983611e2f565b915061203182611ff0565b602082019050919050565b6000602082019050818103600083015261205581612019565b9050919050565b7f6e6f7420612076616c6964207369676e65720000000000000000000000000000600082015250565b6000612092601283611e2f565b915061209d8261205c565b602082019050919050565b600060208201905081810360008301526120c181612085565b9050919050565b7f63616e2774207369676e20747769636500000000000000000000000000000000600082015250565b60006120fe601083611e2f565b9150612109826120c8565b602082019050919050565b6000602082019050818103600083015261212d816120f1565b9050919050565b7f4e487b7100000000000000000000000000000000000000000000000000000000600052601160045260246000fd5b600061216e82611a49565b915061217983611a49565b925082820190508082111561219157612190612134565b5b92915050565b60006040820190506121ac6000830185611eac565b6121b96020830184611cc1565b9392505050565b6121c981611afc565b81146121d457600080fd5b50565b6000815190506121e6816121c0565b92915050565b600060208284031215612202576122016119eb565b5b6000612210848285016121d7565b91505092915050565b7f61646472657373207a65726f20666f756e640000000000000000000000000000600082015250565b600061224f601283611e2f565b915061225a82612219565b602082019050919050565b6000602082019050818103600083015261227e81612242565b9050919050565b7f756e6174686f72697a6564206163636573730000000000000000000000000000600082015250565b60006122bb601283611e2f565b91506122c682612285565b602082019050919050565b600060208201905081810360008301526122ea816122ae565b9050919050565b7f7265717565737420616c726561647920646f6e65000000000000000000000000600082015250565b6000612327601483611e2f565b9150612332826122f1565b602082019050919050565b600060208201905081810360008301526123568161231a565b9050919050565b7f696e76616c6964207369676e6572000000000000000000000000000000000000600082015250565b6000612393600e83611e2f565b915061239e8261235d565b602082019050919050565b600060208201905081810360008301526123c281612386565b9050919050565b7f63616e27742073656e64207a65726f20616d6f756e7400000000000000000000600082015250565b60006123ff601683611e2f565b915061240a826123c9565b602082019050919050565b6000602082019050818103600083015261242e816123f2565b9050919050565b7f756e617574686f72697a65642061636365737300000000000000000000000000600082015250565b600061246b601383611e2f565b915061247682612435565b602082019050919050565b6000602082019050818103600083015261249a8161245e565b9050919050565b7f6e65772071756f72756d206d757374206e6f74206265206f6c64000000000000600082015250565b60006124d7601a83611e2f565b91506124e2826124a1565b602082019050919050565b60006020820190508181036000830152612506816124ca565b9050919050565b7f71756f72756d2063616e7420626520686967686572207468616e206e6f4f665660008201527f616c69645369676e657273000000000000000000000000000000000000000000602082015250565b6000612569602b83611e2f565b91506125748261250d565b604082019050919050565b600060208201905081810360008301526125988161255c565b9050919050565b7f71756f72756d2063616e74206265203000000000000000000000000000000000600082015250565b60006125d5601083611e2f565b91506125e08261259f565b602082019050919050565b60006020820190508181036000830152612604816125c8565b905091905056fea2646970667358221220e2bbf692adf96c1b505ccb0ef10a4116cfe9e956d113ec838bc0304fa76b2d9564736f6c63430008180033a2646970667358221220a27b40d9961d27f868f1a0ea05a9879354ae5686b70d57ce03d5e1d8b1e9a4c864736f6c63430008180033",
  "linkReferences": {},
  "deployedLinkReferences": {}
}